{
  "_format": "hh-sol-artifact-1",
  "contractName": "BlockHealth",
  "sourceName": "contracts/BlockHealth.sol",
  "abi": [
    {
      "inputs": [],
      "stateMutability": "nonpayable",
      "type": "constructor"
    },
    {
      "inputs": [],
      "name": "aboutUs",
      "outputs": [
        {
          "internalType": "string",
          "name": "",
          "type": "string"
        }
      ],
      "stateMutability": "view",
      "type": "function"
    },
    {
      "inputs": [
        {
          "internalType": "address",
          "name": "newManager",
          "type": "address"
        }
      ],
      "name": "addManager",
      "outputs": [],
      "stateMutability": "nonpayable",
      "type": "function"
    },
    {
      "inputs": [
        {
          "internalType": "address",
          "name": "patient",
          "type": "address"
        },
        {
          "internalType": "address",
          "name": "doctor",
          "type": "address"
        },
        {
          "internalType": "string",
          "name": "url",
          "type": "string"
        }
      ],
      "name": "addRecord",
      "outputs": [],
      "stateMutability": "nonpayable",
      "type": "function"
    },
    {
      "inputs": [
        {
          "internalType": "address",
          "name": "oldManager",
          "type": "address"
        }
      ],
      "name": "deleteManager",
      "outputs": [],
      "stateMutability": "nonpayable",
      "type": "function"
    },
    {
      "inputs": [],
      "name": "getMyPatients",
      "outputs": [
        {
          "internalType": "address[]",
          "name": "",
          "type": "address[]"
        }
      ],
      "stateMutability": "view",
      "type": "function"
    },
    {
      "inputs": [],
      "name": "getMyRecords",
      "outputs": [
        {
          "internalType": "string[]",
          "name": "",
          "type": "string[]"
        }
      ],
      "stateMutability": "view",
      "type": "function"
    },
    {
      "inputs": [
        {
          "internalType": "address",
          "name": "doctor",
          "type": "address"
        }
      ],
      "name": "getPatients",
      "outputs": [
        {
          "internalType": "address[]",
          "name": "",
          "type": "address[]"
        }
      ],
      "stateMutability": "view",
      "type": "function"
    },
    {
      "inputs": [
        {
          "internalType": "address",
          "name": "patient",
          "type": "address"
        }
      ],
      "name": "getRecords",
      "outputs": [
        {
          "internalType": "string[]",
          "name": "",
          "type": "string[]"
        }
      ],
      "stateMutability": "view",
      "type": "function"
    },
    {
      "inputs": [
        {
          "internalType": "address",
          "name": "",
          "type": "address"
        }
      ],
      "name": "managers",
      "outputs": [
        {
          "internalType": "bool",
          "name": "",
          "type": "bool"
        }
      ],
      "stateMutability": "view",
      "type": "function"
    },
    {
      "inputs": [],
      "name": "owner",
      "outputs": [
        {
          "internalType": "address",
          "name": "",
          "type": "address"
        }
      ],
      "stateMutability": "view",
      "type": "function"
    },
    {
      "inputs": [
        {
          "internalType": "address",
          "name": "newOwner",
          "type": "address"
        }
      ],
      "name": "transferOwnership",
      "outputs": [],
      "stateMutability": "nonpayable",
      "type": "function"
    }
  ],
  "bytecode": "0x6080604052604051806080016040528060528152602001620019e06052913960009080519060200190620000359291906200008b565b503480156200004357600080fd5b5033600160006101000a81548173ffffffffffffffffffffffffffffffffffffffff021916908373ffffffffffffffffffffffffffffffffffffffff160217905550620001a0565b82805462000099906200013b565b90600052602060002090601f016020900481019282620000bd576000855562000109565b82601f10620000d857805160ff191683800117855562000109565b8280016001018555821562000109579182015b8281111562000108578251825591602001919060010190620000eb565b5b5090506200011891906200011c565b5090565b5b80821115620001375760008160009055506001016200011d565b5090565b600060028204905060018216806200015457607f821691505b602082108114156200016b576200016a62000171565b5b50919050565b7f4e487b7100000000000000000000000000000000000000000000000000000000600052602260045260246000fd5b61183080620001b06000396000f3fe608060405234801561001057600080fd5b50600436106100a95760003560e01c8063a0076e8411610071578063a0076e8414610152578063cc63f46614610182578063d1d5ebd81461019e578063e76637ce146101bc578063f2fde38b146101da578063fdff9b4d146101f6576100a9565b80632d06177a146100ae578063441131c9146100ca5780635e43b7f4146100e85780638da5cb5b146101185780639679976014610136575b600080fd5b6100c860048036038101906100c3919061109a565b610226565b005b6100d2610311565b6040516100df919061134c565b60405180910390f35b61010260048036038101906100fd919061109a565b6103dc565b60405161010f919061134c565b60405180910390f35b61012061058d565b60405161012d9190611331565b60405180910390f35b610150600480360381019061014b919061109a565b6105b3565b005b61016c6004803603810190610167919061109a565b61069e565b604051610179919061136e565b60405180910390f35b61019c600480360381019061019791906110c3565b610991565b005b6101a6610ce2565b6040516101b391906113ab565b60405180910390f35b6101c4610d70565b6040516101d1919061136e565b60405180910390f35b6101f460048036038101906101ef919061109a565b610e86565b005b610210600480360381019061020b919061109a565b610f5a565b60405161021d9190611390565b60405180910390f35b600160009054906101000a900473ffffffffffffffffffffffffffffffffffffffff1673ffffffffffffffffffffffffffffffffffffffff163373ffffffffffffffffffffffffffffffffffffffff16146102b6576040517f08c379a00000000000000000000000000000000000000000000000000000000081526004016102ad9061140d565b60405180910390fd5b6001600260008373ffffffffffffffffffffffffffffffffffffffff1673ffffffffffffffffffffffffffffffffffffffff16815260200190815260200160002060006101000a81548160ff02191690831515021790555050565b6060600360003373ffffffffffffffffffffffffffffffffffffffff1673ffffffffffffffffffffffffffffffffffffffff1681526020019081526020016000208054806020026020016040519081016040528092919081815260200182805480156103d257602002820191906000526020600020905b8160009054906101000a900473ffffffffffffffffffffffffffffffffffffffff1673ffffffffffffffffffffffffffffffffffffffff1681526020019060010190808311610388575b5050505050905090565b6060600260003373ffffffffffffffffffffffffffffffffffffffff1673ffffffffffffffffffffffffffffffffffffffff16815260200190815260200160002060009054906101000a900460ff168061048357503373ffffffffffffffffffffffffffffffffffffffff16600160009054906101000a900473ffffffffffffffffffffffffffffffffffffffff1673ffffffffffffffffffffffffffffffffffffffff16145b6104c2576040517f08c379a00000000000000000000000000000000000000000000000000000000081526004016104b9906113ed565b60405180910390fd5b600360008373ffffffffffffffffffffffffffffffffffffffff1673ffffffffffffffffffffffffffffffffffffffff16815260200190815260200160002080548060200260200160405190810160405280929190818152602001828054801561058157602002820191906000526020600020905b8160009054906101000a900473ffffffffffffffffffffffffffffffffffffffff1673ffffffffffffffffffffffffffffffffffffffff1681526020019060010190808311610537575b50505050509050919050565b600160009054906101000a900473ffffffffffffffffffffffffffffffffffffffff1681565b600160009054906101000a900473ffffffffffffffffffffffffffffffffffffffff1673ffffffffffffffffffffffffffffffffffffffff163373ffffffffffffffffffffffffffffffffffffffff1614610643576040517f08c379a000000000000000000000000000000000000000000000000000000000815260040161063a9061140d565b60405180910390fd5b6000600260008373ffffffffffffffffffffffffffffffffffffffff1673ffffffffffffffffffffffffffffffffffffffff16815260200190815260200160002060006101000a81548160ff02191690831515021790555050565b6060816000805b600360003373ffffffffffffffffffffffffffffffffffffffff1673ffffffffffffffffffffffffffffffffffffffff168152602001908152602001600020805490508110156107e0578273ffffffffffffffffffffffffffffffffffffffff16600360003373ffffffffffffffffffffffffffffffffffffffff1673ffffffffffffffffffffffffffffffffffffffff168152602001908152602001600020828154811061077d577f4e487b7100000000000000000000000000000000000000000000000000000000600052603260045260246000fd5b9060005260206000200160009054906101000a900473ffffffffffffffffffffffffffffffffffffffff1673ffffffffffffffffffffffffffffffffffffffff1614156107cd57600191506107e0565b80806107d89061160f565b9150506106a5565b50808061083a57503373ffffffffffffffffffffffffffffffffffffffff16600160009054906101000a900473ffffffffffffffffffffffffffffffffffffffff1673ffffffffffffffffffffffffffffffffffffffff16145b610879576040517f08c379a0000000000000000000000000000000000000000000000000000000008152600401610870906113cd565b60405180910390fd5b600460008573ffffffffffffffffffffffffffffffffffffffff1673ffffffffffffffffffffffffffffffffffffffff168152602001908152602001600020805480602002602001604051908101604052809291908181526020016000905b828210156109845783829060005260206000200180546108f7906115ac565b80601f0160208091040260200160405190810160405280929190818152602001828054610923906115ac565b80156109705780601f1061094557610100808354040283529160200191610970565b820191906000526020600020905b81548152906001019060200180831161095357829003601f168201915b5050505050815260200190600101906108d8565b5050505092505050919050565b600260003373ffffffffffffffffffffffffffffffffffffffff1673ffffffffffffffffffffffffffffffffffffffff16815260200190815260200160002060009054906101000a900460ff1680610a3657503373ffffffffffffffffffffffffffffffffffffffff16600160009054906101000a900473ffffffffffffffffffffffffffffffffffffffff1673ffffffffffffffffffffffffffffffffffffffff16145b610a75576040517f08c379a0000000000000000000000000000000000000000000000000000000008152600401610a6c906113ed565b60405180910390fd5b6000805b600360008573ffffffffffffffffffffffffffffffffffffffff1673ffffffffffffffffffffffffffffffffffffffff16815260200190815260200160002080549050811015610bb4578473ffffffffffffffffffffffffffffffffffffffff16600360008673ffffffffffffffffffffffffffffffffffffffff1673ffffffffffffffffffffffffffffffffffffffff1681526020019081526020016000208281548110610b51577f4e487b7100000000000000000000000000000000000000000000000000000000600052603260045260246000fd5b9060005260206000200160009054906101000a900473ffffffffffffffffffffffffffffffffffffffff1673ffffffffffffffffffffffffffffffffffffffff161415610ba15760019150610bb4565b8080610bac9061160f565b915050610a79565b50600015158115151415610c6357600360008473ffffffffffffffffffffffffffffffffffffffff1673ffffffffffffffffffffffffffffffffffffffff168152602001908152602001600020849080600181540180825580915050600190039060005260206000200160009091909190916101000a81548173ffffffffffffffffffffffffffffffffffffffff021916908373ffffffffffffffffffffffffffffffffffffffff1602179055505b600460008573ffffffffffffffffffffffffffffffffffffffff1673ffffffffffffffffffffffffffffffffffffffff16815260200190815260200160002082908060018154018082558091505060019003906000526020600020016000909190919091509080519060200190610cdb929190610f7a565b5050505050565b60008054610cef906115ac565b80601f0160208091040260200160405190810160405280929190818152602001828054610d1b906115ac565b8015610d685780601f10610d3d57610100808354040283529160200191610d68565b820191906000526020600020905b815481529060010190602001808311610d4b57829003601f168201915b505050505081565b6060600460003373ffffffffffffffffffffffffffffffffffffffff1673ffffffffffffffffffffffffffffffffffffffff168152602001908152602001600020805480602002602001604051908101604052809291908181526020016000905b82821015610e7d578382906000526020600020018054610df0906115ac565b80601f0160208091040260200160405190810160405280929190818152602001828054610e1c906115ac565b8015610e695780601f10610e3e57610100808354040283529160200191610e69565b820191906000526020600020905b815481529060010190602001808311610e4c57829003601f168201915b505050505081526020019060010190610dd1565b50505050905090565b600160009054906101000a900473ffffffffffffffffffffffffffffffffffffffff1673ffffffffffffffffffffffffffffffffffffffff163373ffffffffffffffffffffffffffffffffffffffff1614610f16576040517f08c379a0000000000000000000000000000000000000000000000000000000008152600401610f0d9061140d565b60405180910390fd5b80600160006101000a81548173ffffffffffffffffffffffffffffffffffffffff021916908373ffffffffffffffffffffffffffffffffffffffff16021790555050565b60026020528060005260406000206000915054906101000a900460ff1681565b828054610f86906115ac565b90600052602060002090601f016020900481019282610fa85760008555610fef565b82601f10610fc157805160ff1916838001178555610fef565b82800160010185558215610fef579182015b82811115610fee578251825591602001919060010190610fd3565b5b509050610ffc9190611000565b5090565b5b80821115611019576000816000905550600101611001565b5090565b600061103061102b84611452565b61142d565b90508281526020810184848401111561104857600080fd5b61105384828561156a565b509392505050565b60008135905061106a816117e3565b92915050565b600082601f83011261108157600080fd5b813561109184826020860161101d565b91505092915050565b6000602082840312156110ac57600080fd5b60006110ba8482850161105b565b91505092915050565b6000806000606084860312156110d857600080fd5b60006110e68682870161105b565b93505060206110f78682870161105b565b925050604084013567ffffffffffffffff81111561111457600080fd5b61112086828701611070565b9150509250925092565b60006111368383611156565b60208301905092915050565b600061114e8383611256565b905092915050565b61115f81611522565b82525050565b61116e81611522565b82525050565b600061117f826114a3565b61118981856114de565b935061119483611483565b8060005b838110156111c55781516111ac888261112a565b97506111b7836114c4565b925050600181019050611198565b5085935050505092915050565b60006111dd826114ae565b6111e781856114ef565b9350836020820285016111f985611493565b8060005b8581101561123557848403895281516112168582611142565b9450611221836114d1565b925060208a019950506001810190506111fd565b50829750879550505050505092915050565b61125081611534565b82525050565b6000611261826114b9565b61126b8185611500565b935061127b818560208601611579565b611284816116e5565b840191505092915050565b600061129a826114b9565b6112a48185611511565b93506112b4818560208601611579565b6112bd816116e5565b840191505092915050565b60006112d5602f83611511565b91506112e0826116f6565b604082019050919050565b60006112f8603d83611511565b915061130382611745565b604082019050919050565b600061131b602183611511565b915061132682611794565b604082019050919050565b60006020820190506113466000830184611165565b92915050565b600060208201905081810360008301526113668184611174565b905092915050565b6000602082019050818103600083015261138881846111d2565b905092915050565b60006020820190506113a56000830184611247565b92915050565b600060208201905081810360008301526113c5818461128f565b905092915050565b600060208201905081810360008301526113e6816112c8565b9050919050565b60006020820190508181036000830152611406816112eb565b9050919050565b600060208201905081810360008301526114268161130e565b9050919050565b6000611437611448565b905061144382826115de565b919050565b6000604051905090565b600067ffffffffffffffff82111561146d5761146c6116b6565b5b611476826116e5565b9050602081019050919050565b6000819050602082019050919050565b6000819050602082019050919050565b600081519050919050565b600081519050919050565b600081519050919050565b6000602082019050919050565b6000602082019050919050565b600082825260208201905092915050565b600082825260208201905092915050565b600082825260208201905092915050565b600082825260208201905092915050565b600061152d82611540565b9050919050565b60008115159050919050565b600073ffffffffffffffffffffffffffffffffffffffff82169050919050565b6000819050919050565b82818337600083830152505050565b60005b8381101561159757808201518184015260208101905061157c565b838111156115a6576000848401525b50505050565b600060028204905060018216806115c457607f821691505b602082108114156115d8576115d7611687565b5b50919050565b6115e7826116e5565b810181811067ffffffffffffffff82111715611606576116056116b6565b5b80604052505050565b600061161a82611560565b91507fffffffffffffffffffffffffffffffffffffffffffffffffffffffffffffffff82141561164d5761164c611658565b5b600182019050919050565b7f4e487b7100000000000000000000000000000000000000000000000000000000600052601160045260246000fd5b7f4e487b7100000000000000000000000000000000000000000000000000000000600052602260045260246000fd5b7f4e487b7100000000000000000000000000000000000000000000000000000000600052604160045260246000fd5b6000601f19601f8301169050919050565b7f596f752063616e6e6f742061636365737320736f6d656f6e652773207072697660008201527f61746520696e666f726d6174696f6e0000000000000000000000000000000000602082015250565b7f4f6e6c7920616c6c6f776564206d616e6167657273206f7220746865206f776e60008201527f65722063616e20706572666f726d2074686973206f7065726174696f6e000000602082015250565b7f4f6e6c7920746865206f776e6572206861732061636365737320746f2074686960008201527f7300000000000000000000000000000000000000000000000000000000000000602082015250565b6117ec81611522565b81146117f757600080fd5b5056fea2646970667358221220486e4157d61aeb3b210f05e163e917611fb00bafc2f0c40b6c223d885f73985b64736f6c6343000804003353656375726520646563656e7472616c697a656420656c656374726f6e6963206865616c7468207265636f7264732073686172696e672073797374656d206261736564206f6e20626c6f636b636861696e73",
  "linkReferences": {},
  "deployedLinkReferences": {}
}